:100000000C308A00122C0000FF00030E8301A100B7
:100010007F08A0000A08A7008A01A00E0408A20019
:100020007708A3007808A4007908A5007A08A6003C
:10003000831383128B1E1E280B192F28220884007D
:100040002308F7002408F8002508F9002608FA001C
:1000500027088A00210E8300FF0E7F0E09008A15F3
:1000600000288316051183120515831605118312C6
:1000700005110800831685118312851583168511D5
:100080008312851108008316210B5128A201220832
:10009000033C031C51280310FE0D0310A00DA20AFF
:1000A0004728A3012308033C031C7428FE1F5D2876
:1000B000861383128613602883168613831286178D
:1000C0008316A01F68288510831285106B2883165D
:1000D000851083128514312031200310FE0D03108A
:1000E0008316A00DA30A522883123A200800831613
:1000F000230B8728A4012408013C031C8728031034
:10010000A00D0310A10D0310A20DA40A7B28230843
:10011000023C031D9828A5012508033C031C9828D0
:100120000310A00D0310A10D0310A20DA50A8C2829
:100130002308033C031DA928A6012608053C031C2F
:10014000A9280310A00D0310A10D0310A20DA60AEB
:100150009D28A7012708013C031CDB28A01FB52808
:10016000861383128613B828831686138312861784
:100170008316A11FC028851083128510C3288316FB
:100180008510831285148316A21FCB2805108312B5
:100190000510CE2883160510831205143120312056
:1001A0003120312003108316A00D0310A10D031080
:1001B000A20DA70AAA2883123A200800F2017208A9
:1001C000033C031C5E2A443072078400831300083A
:1001D000C800F30173080F3C031C03293430730774
:1001E00084008313480EF700F030F7057708730793
:1001F000FE007E0883169B009C131C141A088000C6
:10020000F30A8312EA28311E1F29F40174080F3CF7
:10021000031C1F297208013C031C16293430740783
:10022000840083130310000D80001D2934307407EF
:10023000840083130310000C8000F40A0629311C8B
:100240003129720B28290130BE07BD07BA07B9074B
:100250007208023C031D31298030BE07BD07BA0772
:10026000B907B11C3F29720B38290130B607B7070F
:100270007208023C031D3F298030B607B707CD083E
:10028000031D6A290330F50075080F3C031C6A2919
:1002900071087502343E840083130008FC007C085A
:1002A000FD00FE017E08073C031C6629FD1F5D2939
:1002B000831686138312861361298316861383128D
:1002C000861731200310FD0DFE0A52293A20043012
:1002D000F50744294D0BB92971080139031DB929C6
:1002E0000130F6007608073C031C94290830760795
:1002F000FC000310710C7C02343E84008313000860
:10030000FC000310710C7602343E84008313000855
:10031000FD007C08FE007D088316A000A101831269
:1003200043200230F60772290130F6007608073CB8
:10033000031CB92908307607FC000310710C7C02FD
:10034000343E840083130008FC000310710C760215
:10035000343E840083130008FD007C08FE007D0805
:100360008316A0000130A100831243200230F6075B
:1003700096294D08023C031D5C2A71080339031DB0
:100380005C2A0230FB007B08053C031CE72908308F
:100390007B07343E840083130008FC0004307B0795
:1003A000343E840083130008FD0034307B07840052
:1003B00083130008FE007C088316A0007D08A100BE
:1003C0007E08A200A30183127720FB0AC329023012
:1003D000FB007B08053C031C0E2A08307B07343EDB
:1003E000840083130008FC0004307B07343E840043
:1003F00083130008FD0034307B078400831300085A
:10040000FE007C088316A0007D08A1007E08A200E3
:100410000130A30083127720FB0AE9290230FB0098
:100420007B08053C031C352A08307B07343E8400DA
:1004300083130008FC0004307B07343E84008313E0
:100440000008FD0034307B07840083130008FE00A1
:100450007C088316A0007D08A1007E08A20002305F
:10046000A30083127720FB0A102A0230FB007B08CE
:10047000053C031C5C2A08307B07343E8400831350
:100480000008FC0004307B07343E8400831300081E
:10049000FD0034307B07840083130008FE007C08D5
:1004A0008316A0007D08A1007E08A2000330A300EF
:1004B00083127720FB0A372AF20ADF280800083067
:1004C000F8000430F700F70B632A861183168611B3
:1004D0000330F700F70B6A2AF60D83120611031C8E
:1004E000742A8316061583120318792A83160611B7
:1004F0008312831686158312861D7C2AF80B612AC7
:100500000430F700F70B822A86118316861100004B
:1005100006150330F700F70B8B2A0330F700F70BB3
:100520008F2A86158312861D932AF8010330F7005F
:10053000F70B982A061978148611831686118312F0
:10054000061183160611831208000830FB00770895
:10055000FC00831606150330F700F70BAD2A86154D
:100560008312861DB12A06190314061D0310F80D07
:100570000430F700F70BBA2A83168611831286110E
:10058000FB0BA92A831606150330F700F70BC62AC2
:10059000831206117C080319D02A831606118312D0
:1005A0000000831686158312861DD42A0430F700B6
:1005B000F70BD82A8611831686110330F700F70B44
:1005C000DF2A8312061183160611831208007B08A6
:1005D000FC000310FC0C7830FC057C0CF700F70CD9
:1005E0003F30F70577087C07FD007B080F397D0752
:1005F000F8000800831606150430F700F70BFE2AF2
:1006000086150330F700F70B032B831206118316B0
:1006100006110430F700F70B0B2B8312861183169B
:100620008611D030F60083125F22F6015F22831616
:1006300006150430F700F70B1B2B86150330F70067
:10064000F70B202B8312861D232B06118316061110
:100650000430F700F70B2A2B8312861183168611BC
:10066000D130F60083125F220130F700A52278080E
:100670007F39F200FB00E7227808A9000130F7007B
:10068000A52278087F39F200FB00E7227808AA004B
:10069000F701A52278083F39F200FB00E72278082D
:1006A000AB0083160611000086158312861D562B9B
:1006B0000430F700F70B5A2B5D2B0000831606154C
:1006C0000430F700F70B622B06150430F700F70B28
:1006D000672B86150330F700F70B6C2B831206117E
:1006E000831606110430F700F70B742B8312861162
:1006F00083168611D030F60083125F220330F60095
:100700005F22831606150430F700F70B852B86153C
:100710000330F700F70B8A2B8312861D8D2B0611F1
:10072000831606110430F700F70B942B8312861101
:1007300083168611D130F60083125F220130F70054
:10074000A52278087F39F200FB00E7227808AF0085
:100750000130F700A52278083F39F200FB00E722BC
:100760007808AC000130F700A52278081F39F200A4
:10077000FB00E7227808AD00F701A5227808F20017
:10078000FB00E7227808AE008316061100008615EC
:100790008312861DC92B0430F700F70BCD2BD02B0D
:1007A0000000831606150430F700F70BD52B8312D3
:1007B00008007308F80172020318E12B7208F700B1
:1007C000ED2BF7010830F400F20DF70D73087702F6
:1007D0000318F700F80DF40BE42B0800A030840098
:1007E000831300080319012C0630F800F701F70BFA
:1007F000F72BF80BF62B7B30F700F70BFD2B800B5C
:10080000F42B080003308316A102031C112CA13025
:100810008400831300080319112C0F2C0F2C800B5C
:100820000E2C831208008316051283120512023063
:100830008316A000F930A100831202248316A00BB6
:100840001A2C05160230A000F930A10083120224F0
:100850008316A00B242C0516831208008316A10111
:100860002108073C031C582C051283120512023084
:10087000F700F70B392C3C2C000003108316A00C5A
:100880000318462C83120512482C83168312051672
:10089000831605126330F700F70B4C2C4F2C05160E
:1008A0000230F700F70B522C552C0000A10A302C17
:1008B000831208008316A0012008073C031C812C2A
:1008C0000512831205120230F700F70B652C682C15
:1008D0000000831605160C30F700F70B6D2C702CFA
:1008E000000005168312051A772C0310782C0314C8
:1008F0008316A10CC730F700F70B7C2C7F2CA00AC5
:100900005C2C2108F80083120800831624080319C0
:100910004B2DB000280803194B2DB002031C952C59
:100920007F30B00703184B2D9B2C8130B002031C85
:100930004B2D03194B2D3008F700F801F901FA018E
:10094000AF012508AE00AE172608AD002708AC00A1
:100950001930B0002B08AC020318BE2C0130AD02D8
:100960000318BE2CAE020318BE2CAF020318BE2C17
:10097000AF0AAE0AAD0A2B08AC07F02C2A08AD026C
:100980000318D92C0130AE020318D92CAF0203187A
:10099000D92CAF0AAE0A2A08AD072B08AC07031CF6
:1009A000F02CAD0A031DF02CAE0A031DF02CAF0A8B
:1009B000F02C29088038AE020318EF2C0130AF026A
:1009C0000318EF2CAF0A29088038AE072A08AD07B4
:1009D000031CCD2CAE0A031DCD2CAF0ACD2C7A14EE
:1009E000B00BF32CFE2C0310AC0DAD0DAE0DAF0D06
:1009F0000310FA0DF90DF80DB10DAA2C311C062DBE
:100A00000310F80CF90CFA0CB10C092DF7030319BB
:100A10004B2DB11B322D0310AC0DAD0DAE0DAF0D36
:100A20002B08AC0203181E2D0130AD0203181E2D39
:100A3000AE0203181E2DAF02031C412D2A08AD0281
:100A40000318292D0130AE020318292DAF02031C13
:100A5000412D29088038AE020318322D0130AF0233
:100A6000031C412DFA0A031D412DF90A031D412DD6
:100A7000F80A031D412DF70A03194B2DF80CF90C48
:100A8000FA0C2508B0002908B006B01F492DF81748
:100A90004F2DF8134F2DF701F801F901FA018312D8
:100AA0000800720873068039F500F21F592DF2090B
:100AB000F20AF31F5D2DF309F30A7308F8017202BD
:100AC0000318652D7208F700712DF7010830F40046
:100AD000F20DF70D730877020318F700F80DF40B09
:100AE000682DF51F752DF809F80A0800FA2271081B
:100AF000FC3E0318DC2E043EDD2E3115B1103116FC
:100B00002B08F2000A30F300D9237808C4002B0820
:100B1000F2000A30F300D9237708C5002A08F20052
:100B20000A30F300D9237808C6002A08F2000A30F8
:100B3000F300D9237708C700DC2E31113110B1142E
:100B400031162C08F2000A30F300D9237808C400CB
:100B50002C08F2000A30F300D9237708C5002D08CD
:100B6000F2000A30F300D9237808C6002D08F200FD
:100B70000A30F300D9237708C700DC2E3111311079
:100B8000B11031120230C400C5012E08F2000A3043
:100B9000F300D9237808C6002E08F2000A30F300CB
:100BA000D9237708C700DC2EB1199E2E83160613B1
:100BB0008312061305308316A0008312EE23F20180
:100BC0001324CC308316A00083122E2444308316C5
:100BD000A00083122E24F208031DF22D5A24780857
:100BE000F200EB2D1324CC308316A00083122E24A8
:100BF000BE308316A00083122E245A247808F300F6
:100C00005A247808F4007408F6007308F500760892
:100C10008316A1007508A0008E30F7002108F800A7
:100C20002008F900FA01A11F1A2EF809F909F90A9A
:100C30000319F80AF808031D272E7908F800F901AE
:100C40000830F702F808031D272EF701302E031095
:100C5000F81B2E2EF90DF80DF703272EA11FF81300
:100C60007A08A3007908A2007808A1007708A000FC
:100C70002308A7002208A6002108A5002008A40038
:100C8000AB01AA01A9018030A800831285247A084B
:100C9000FE007908FD007808FC007708FB00C830EA
:100CA0008316A0008312EE237B08F7007C08F8006F
:100CB0007D08F9007E08FA007A08F5007908F4004A
:100CC0007808F3007708F20075088316A700740807
:100CD000A6007308A5007208A400AB01AA01203089
:100CE000A9008230A800831285247A08F5007908CB
:100CF000F4007808F3007708F2008E30F7007208ED
:100D0000F7027308F9007408F800F917F7080319D7
:100D1000942E0310F908031D902EF8080319942E41
:100D2000F90CF80CF70B892EF31F9B2EF809F90923
:100D3000F80A0319F90A7808B000B1153111311019
:100D4000B1103112B01BBD2EB01BAA2E3008633C6F
:100D5000031CBD2E3008F2000A30F300512578083C
:100D6000C4003008F2000A30F30051257708C500AE
:100D70000A30C6000B30C700DC2EB01FD72E30085B
:100D8000803A1C3C0318D72E0D30C4003008F20006
:100D90000A30F30051257808C5003008F2000A3007
:100DA000F30051257708C6000A30C700DC2E0D304D
:100DB000C400C500C600C70008000A108A140A153E
:100DC00082077D2D9D2DBE2DD42D6E08EF00F001E4
:100DD0006F08093C0318F12E0A30EF021030F007BB
:100DE000F42E6F08F007F52EE82E7008F8000800C2
:100DF000DD01831606150430F700F70BFD2E86156E
:100E00000330F700F70B022F831206118316061129
:100E10000430F700F70B0A2F831286118316861110
:100E20008312A8018B1BA8178B13D030F6005F220A
:100E3000A81B8B17A8018B1BA8178B13F6015F2229
:100E4000A81B8B17831606150430F700F70B262F07
:100E500086150330F700F70B2B2F8312861D2E2FDC
:100E60000611831606110430F700F70B352F831295
:100E70008611831686118312A8018B1BA8178B136A
:100E8000D130F6005F22A81B8B17F701A8018B1B3E
:100E9000A8178B13A522A81B8B177808DE00A801C2
:100EA0008B1BA8178B137808FB00E722A81B8B1756
:100EB0007808DD0083160611000086158312861D52
:100EC0005F2F0430F700F70B632F662F00008316A7
:100ED00006150430F700F70B6B2F8312DD13043077
:100EE000F700F70B712F742F831606150430F700E7
:100EF000F70B782F86150330F700F70B7D2F831241
:100F00000611831606110430F700F70B852F8312A4
:100F10008611831686118312A8018B1BA8178B13C9
:100F2000D030F6005F22A81B8B17A8018B1BA817D7
:100F30008B13F6015F22A81B8B175D08EE00E526D8
:100F40007808DE00A8018B1BA8178B137808F60021
:100F50005F22A81B8B17831606150430F700F70BCA
:100F6000AF2F86150330F700F70BB42F8312861DC1
:100F7000B72F0611831606110430F700F70BBE2FAA
:100F800083128611831686118312A8018B1BA81762
:100F90008B13D030F6005F22A81B8B17A8018B1B88
:100FA000A8178B130730F6005F22A81B8B17A80128
:100FB0008B1BA8178B138030F6005F22A81B8B17A2
:100FC00083160611000086158312861DE52F043056
:100FD000F700F70BE92FEC2F0000831606150430FD
:100FE000F700F70BF12F83128A15492CE030831696
:0E0FF0009B009C131C141A088312CD000800ED
:10100000FF3081003308FC3E03185F28043E192995
:1010100083160613831206133308F1008A11DE20AB
:101020008A1583168612831286128316061283127D
:10103000061283160613831206175F2883160613FB
:10104000831206133308F1008A11DE208A158316F5
:1010500086128312861683160612831206128316D0
:101060000613831206175F288316061383120613CE
:101070003308F1008A11DE208A1583168612831246
:10108000861283160612831206168316061383121F
:1010900006175F2883160613831206133308F10020
:1010A0008A11DE208A15831686128312861683160D
:1010B0000612831206168316061383120617B30A46
:1010C0003308033C031CB301CB08031D7528311DF5
:1010D00075283208953C031C6F2831147428320897
:1010E000953C031874283110B20ACB08031DEA2876
:1010F0004A080B3C031C8828031D82284908B83C79
:10110000031C8828B111F1018A1176258A15E62879
:101110004A080A3C0318A328FF3A031D93284908EC
:10112000B83C0318A3284A08173C031CA328031D36
:101130009D284908703C031CA3280130F1008A1146
:1011400076258A15E6284A08163C0318BE28FF3A79
:10115000031DAE284908703C0318BE284A08233CEA
:10116000031CBE28031DB8284908283C031CBE28C0
:101170000230F1008A1176258A15E6284A08223CB9
:101180000318D928FF3A031DC9284908283C031829
:10119000D9284A082E3C031CD928031DD328490806
:1011A000E03C031CD9280330F1008A1176258A150A
:1011B000E6284A082D3C0318E628FF3A031DE428D8
:1011C0004908E03C0318E628CA01C901C90A031905
:1011D000CA0A16294C08633C031CF52844305B07F7
:1011E000840083130C30800015294C08633C0318DD
:1011F00011294C08C73C031C112944305B07F1003E
:10120000F2010318F20A4E305A07840083130008D3
:10121000F300710884008313721883177308800029
:1012200015294C08C73C031CCC01CC0A0B118A11B0
:101230001E280A148A100A11820708281E2834283A
:101240004A28F701F801610803106218F707F70C44
:10125000F80CE218F707F70CF80C6219F707F70C0F
:10126000F80CE219F707F70CF80C621AF707F70CFD
:10127000F80CE21AF707F70CF80C621BF707F70CEB
:10128000F80CE21BF707F70CF80C0800DE01013040
:10129000DD005E08033C031C5A29031D53295D0829
:1012A000E83C031C5A29542955290000DD0A03197A
:1012B000DE0A49290800831606148312061CBB2B7C
:1012C000CA01C90131113110B110B201CC014B0872
:1012D000DA004B080339DB004B08F53E0318B42B4A
:1012E0000B3EBD2B31113114B1108A11FA228A152F
:1012F000A8018B1BA8178B132B08F2000A30F300F0
:101300008A11D9238A15A81B8B177808CE00A8014B
:101310008B1BA8178B132B08F2000A30F3008A11DD
:10132000D9238A15A81B8B177708CF00A8018B1B20
:10133000A8178B132A08F2000A30F3008A11D92368
:101340008A15A81B8B177808D000A8018B1BA8173B
:101350008B132A08F2000A30F3008A11D9238A1568
:10136000A81B8B177708D100A8018B1BA8178B131C
:101370002C08F2000A30F3008A11D9238A15A81B21
:101380008B177808D200A8018B1BA8178B132C0889
:10139000F2000A30F3008A11D9238A15A81B8B1793
:1013A0007708D300A8018B1BA8178B132D08F20018
:1013B0000A30F3008A11D9238A15A81B8B177808E5
:1013C000D400A8018B1BA8178B132D08F2000A303C
:1013D000F3008A11D9238A15A81B8B177708D5002B
:1013E000A8018B1BA8178B132E08F2000A30F300FC
:1013F0008A11D9238A15A81B8B177808D600A80153
:101400008B1BA8178B132E08F2000A30F3008A11E9
:10141000D9238A15A81B8B177708D7004E08C4005C
:101420004F08C5005008C6005108C7000230DC0054
:101430000130CB00B42B31113114B1104E08C4006F
:101440004F08C5005008C6005108C7000930DC002D
:10145000CB0AB42B31113114B1104E08C4004F081F
:10146000C5005008C6005108C7000530DC00CB0A93
:10147000B42B31113114B1104E08C4004F08C5000F
:101480005008C6005108C7000930DC00CB0AB42B55
:1014900031113110B1145208C4005308C50054086A
:1014A000C6005508C7000330DC000530CB00B42B64
:1014B00031113110B1145208C4005308C50054084A
:1014C000C6005508C7000930DC00CB0AB42B311127
:1014D0003110B1145208C4005308C5005408C600A6
:1014E0005508C7000130DC00CB0AB42B3111311094
:1014F000B1145208C4005308C5005408C60055086A
:10150000C7000930DC00CB0AB42B31113110B11007
:101510000230C400C5015608C6005708C700023093
:10152000DB000930DC00CB00B42B31113110B110DD
:101530000230C400C5015608C6005708C700033072
:10154000DB000930DC00CB0AB42B4E08E1000A3086
:10155000E20021214F087807DD005008E1000A3041
:10156000E200212151087807DE005208E1000A302C
:10157000E200212153087807DF005408E1000A3017
:10158000E200212155087807E0005608E1000A3002
:10159000E200212157087807E1005D08E2005E08BB
:1015A000E3005F08E4006008E5006108E600640805
:1015B000E7006508E8006608E9000130EA00620813
:1015C000EB006308EC00ED01ED133F30EB058316F3
:1015D00006150430F700F70BEB2A86150330F700E9
:1015E000F70BF02A83120611831606110430F70058
:1015F000F70BF82A83128611831686118312A8012D
:101600008B1BA8178B13D030F6008A115F228A1526
:10161000A81B8B17A8018B1BA8178B13F6018A1127
:101620005F228A15A81B8B176D08EE008A11E5262C
:101630008A157808EE00A8018B1BA8178B13780871
:10164000F6008A115F228A15A81B8B176C08EE0022
:101650008A11E5268A157808EE00A8018B1BA817C9
:101660008B137808F6008A115F228A15A81B8B1746
:101670006B08EE008A11E5268A157808EE00A801AD
:101680008B1BA8178B137808F6008A115F228A1526
:10169000A81B8B176A08EE008A11E5268A157808C0
:1016A000EE00A8018B1BA8178B137808F6008A118F
:1016B0005F228A15A81B8B176708EE008A11E526A2
:1016C0008A157808EE00A8018B1BA8178B137808E1
:1016D000F6008A115F228A15A81B8B176808EE0096
:1016E0008A11E5268A157808EE00A8018B1BA81739
:1016F0008B137808F6008A115F228A15A81B8B17B6
:101700006908EE008A11E5268A157808EE00A8011E
:101710008B1BA8178B137808F6008A115F228A1595
:10172000A81B8B17A8018B1BA8178B138030F60002
:101730008A115F228A15A81B8B17831606110000D9
:1017400086158312861DA22B0430F700F70BA62BFB
:10175000A92B0000831606150430F700F70BAE2BFB
:101760008312CA01C901CB01831606148312061C19
:10177000BB2B4621B42B8A154E2C0A148A140A114D
:10178000820772291B2A2A2A392A482A582A672AB4
:10179000762A852A952AA52A831686148312861C02
:1017A000102CCA01C901CB080319EA2B4E305A0785
:1017B000840083135C080002031DE42B4E305A079B
:1017C000840083138001E92B4E305A078400831371
:1017D000800A092CCD0A4D08033C0319CD010B08E2
:1017E000F7008B13E03083169B0083124D0883169D
:1017F0009A009C131C1555309D00AA309D009C1426
:101800009C18002C1C11770883128B048A11F62770
:101810008A15831686148312861C102C4621092CE7
:101820008A154F2CB0013114B110B201B301CA01B5
:10183000C9013111B111CB01CC01CD01DA01DB01BC
:101840003112DC0107309F0083131F3083050C30F9
:10185000C400C500C600C70090010030F800920027
:10186000003083169200F03083129705831601082A
:10187000C03904388100FF3083128100073083169D
:1018800086008601831286018B16C0308B048A1174
:10189000F82E8A158A11F6278A155B29CC2B4D2C38
:0218A0006300E3
:10420000000000003C007E0066006600660066005C
:1042100066006600660066007E003C00000000004C
:10422000000000007E007E00180018001800180032
:10423000180018001800780038001800000000006E
:10424000000000003C007E006000600060007E0016
:104250007E000600060006007E003C000000000014
:10426000000000003C007E004600060006003E0004
:104270003E000600060046007E003C0000000000F4
:1042800000000000060006000600060006007E0092
:104290007E006600660066006600660000000000A2
:1042A000000000003C007E006600060006007E0064
:1042B0007C006000600060007E007E000000000066
:1042C000000000003C007E006600660066007E0084
:1042D0007C006000600066007E003C000000000082
:1042E00000000000300030003000300030003000AE
:1042F00018000C00060006007E007E000000000092
:10430000000000003C007E006600660066003C0085
:104310003C006600660066007E003C000000000075
:10432000000000003C007E006600060006003E0023
:104330007E006600660066007E003C000000000013
:10434000000000000000000000000000000000006D
:1043500000003C006600660066003C0000000000B3
:10436000000000001C003E00720060006000600061
:1043700060006000600072003E001C000000000051
:10438000000000000000000000000000000000002D
:10439000000000000000000000000000000000001D
:1043A00000000000000000000000000000007E008F
:1043B0007E0000000000000000000000000000007F
:0243C0000000FB
:02400E002A1E68
:00000001FF
;PIC16F648A
;CRC=710C  CREATED="02-May-22 10:46"
